:020000040800F2
:10000000980A00209D010008793300088F2D000810
:1000100065300008D90C0008593D000800000000B8
:100020000000000000000000000000004938000847
:10003000650D000800000000853500084B380008F9
:10004000B7010008B7010008B7010008B7010008B0
:10005000B7010008B7010008B7010008B7010008A0
:10006000B7010008B7010008B7010008B701000890
:10007000B7010008B7010008B7010008B701000880
:10008000B7010008B7010008B7010008B701000870
:10009000B7010008B7010008B7010008B701000860
:1000A000B7010008B7010008B7010008B701000850
:1000B000B7010008F5380008B7010008B7010008CB
:1000C000B7010008B7010008B7010008B701000830
:1000D000B7010008B7010008B7010008B701000820
:1000E000B7010008B7010008B7010008B701000810
:1000F000B7010008B7010008B7010008B701000800
:10010000B7010008B7010008B7010008B7010008EF
:10011000B7010008B7010008B7010008B7010008DF
:10012000B7010008B7010008B7010008B7010008CF
:10013000B7010008B7010008B7010008B7010008BF
:10014000B7010008B7010008B7010008B7010008AF
:10015000B7010008B7010008DD0C0008B70100086E
:10016000B7010008B7010008B7010008B70100088F
:10017000B7010008B7010008B7010008000000003F
:10018000B7010008B7010008DFF80CD000F03EFB13
:1001900000480047A9480008980A00200648804700
:1001A00006480047FEE7FEE7FEE7FEE7FEE7FEE75C
:1001B000FEE7FEE7FEE7FEE7E538000889010008F4
:1001C0002DE9F05F0546002092469B46884606468C
:1001D000814640241BE0284641464746224600F01F
:1001E0005EFA53465A46C01A914110D3114618463A
:1001F000224600F045FA2D1A67EB01084F462246C9
:100200000120002100F03CFA17EB00094E41201EAE
:10021000A4F10104DFDC484631462A464346BDE8E6
:10022000F09FD2B201E000F8012B491EFBD27047CB
:100230000022F6E710B513460A4604461946FFF7B2
:10024000F0FF204610BD2DE9FE4F804681EA0300F5
:10025000C00F0C46009021F0004123F00045B8EBA0
:100260000200A94105D24046214690461C460B4655
:10027000024623F00040104347D0270DC7F30A0081
:10028000C3F30A510290401A019040286BDAC3F37D
:10029000130040F4801B0098924620B10023D2EB5B
:1002A000030A63EB0B0B01985946C0F1400250461C
:1002B00000F0E6F906460D4650465946019A00F010
:1002C000FEF910EB08006141002487EA115284EA2C
:1002D000E7731A4340D0009A62B3019A012A4FEAA9
:1002E000075215DC001B61EB02014FF0004202EAED
:1002F0000752CDE90042001C41F5801132462B46E1
:1003000000F035FA03B0BDE8F08F40462146F9E72A
:10031000001B61EB0201001C41F5801300185B41DA
:100320002018A2F5001747EB030140EAD570B61973
:100330006D4111E06D084FEA360645EAC0754FEA97
:100340000752001B61EB0201001C41F580114908B6
:100350004FEA30000019514132462B4603B0BDE848
:10036000F04F00F0F5B90098012240000023D0EBD7
:10037000020263EBE073009821464FEAE074B8EBA9
:10038000000061EB0401E9E783F000435BE781F0E3
:10039000004158E72DE9FE4F81EA030404F00044D0
:1003A00021F0004100944FF0000B23F0004350EA8D
:1003B00001045ED052EA03045BD0C3F30A54C1F3D4
:1003C0000A552C44A4F2F3340194A0FB0254C1F367
:1003D000130141F48011C3F3130343F4801301FBB1
:1003E000024400FB034E840A970A44EA815447EA18
:1003F0008357A4FB076802958D0A05FB07854FEA22
:10040000932C04FB0C542705029D4FEA065847EA3B
:100410001637B5EB08056EEB070C870E920E47EA10
:10042000811742EA8312A7FB0201B6EB0B0164EBD2
:1004300000042B0D43EA0C335E1844EB1C50DA46E3
:100440005146E7FB0201C5F313044FEA0B3343EABD
:1004500014534FEA0432019C43EA0603A4F10C044E
:100460000294009CCDE900B400F081F903B0BDE82E
:10047000F08F00200146F9E72DE9F04D81EA0304F1
:1004800004F0004B21F0004514464FF0000A23F021
:10049000004150EA050220D054EA01021DD0C5F304
:1004A0000A570246C5F31303C1F31300C1F30A56FA
:1004B00040F4801543F48013A7EB0608101BD646C2
:1004C00008F2FD3873EB050002D308F1010801E0E2
:1004D00092185B41B8F1000F03DA00200146BDE835
:1004E000F08D00204FF48011064684460EE0171B65
:1004F00073EB050705D3121B63EB050306434CEAB8
:10050000010C49084FEA300092185B4150EA01079C
:10051000EDD152EA030012D082EA040083EA050119
:10052000084305D0101BAB4106D20122002306E090
:1005300000224FF0004302E06FF0010253101AEB6B
:1005400006004CEB085110EB0A0041EB0B01BDE833
:10055000F04D00F0FDB870B5C1F30A5201F000454E
:100560000024C1F3130140F2FF3341F480119A4299
:1005700001DA002070BD40F233439A42A2F23342C6
:1005800003DC524200F08BF800E090402C43F1D0A5
:10059000404270BD00F0004230F000400AD0C10D72
:1005A00001F56071C0F3160042EA0151C20840072C
:1005B00011437047002001467047000030B5041E0B
:1005C00071F1000404DB4FF00044404264EB010190
:1005D000141E73F1000405DB1C464FF00043524229
:1005E00063EB04038B4208BF824230BD30B5041E6A
:1005F00071F1000404DB4FF00044404264EB010160
:10060000141E73F1000405DB1C464FF000435242F8
:1006100063EB0403994208BF904230BD01F00043F0
:1006200030B421F0004150EA010206D00A0DA2F5D3
:100630006072C1F31301002A02DC30BC0020704755
:10064000440F44EAC104C100E01830BC00EBC250C2
:1006500000F047B830B50B460146002020220124A7
:1006600009E021FA02F59D4205D303FA02F5491B80
:1006700004FA02F52844151EA2F10102F1DC30BD96
:10068000202A04DB203A00FA02F100207047914052
:10069000C2F1200320FA03F3194390407047202A47
:1006A00004DB203A21FA02F00021704721FA02F31C
:1006B000D040C2F120029140084319467047202AD9
:1006C00006DBCB17203A41FA02F043EAE07306E07A
:1006D00041FA02F3D040C2F120029140084319468A
:1006E00070470029A8BF7047401C490008BF20F090
:1006F0000100704710B4B0FA80FC00FA0CF050EA28
:10070000010404BF10BC704749B1CCF1200421FAA8
:1007100004F411FA0CF118BF012121430843A3EBA3
:100720000C01CB1D4FEA00614FEA102042BF0020B0
:1007300010BC704700EBC35010440029A4BF10BC8C
:100740007047401C490008BF20F0010010BC7047F2
:1007500010B5141E73F1000408DA401C41F10001C9
:1007600092185B411A4301D120F0010010BD2DE920
:10077000F04D92469B4611B1B1FA81F202E0B0FA17
:1007800080F220329046FFF77BFF04460F4640EA96
:100790000A0041EA0B0153465A46084313D011465A
:1007A00053EA010019D0C8F140025046FFF777FF25
:1007B00005460E46504659464246FFF761FF08433C
:1007C00005D0012004E020463946BDE8F08D002028
:1007D000054346EAE0762C4337430A986305E40A6A
:1007E000A0EB08000022FD0A44EA47540A3002D573
:1007F00000200146E9E7010510196941DDE90845D6
:1008000000196941BDE8F04DA2E70000064C074D14
:1008100006E0E06840F0010394E8070098471034D0
:10082000AC42F6D3FFF7B4FC304C0008504C000843
:1008300010B500F023FA02F08DFE00F095FA02F0F8
:1008400083FD04F015F903F08FFF044801F01AFF4F
:1008500002496FF001000968086110BDF80100202D
:1008600070B586B0044614216846FFF7E1FCAA2162
:10087000FF2206200A2C74D008DC4FF00003012C64
:1008800070D0032C6FD0042C5FD107E00B2C6BD001
:100890000820202C6AD0212CF6D157E08DF80010CA
:1008A0008DF8012004208DF8020009208DF8030046
:1008B000E248D0ED000A9FEDE20A60EE800AFDEE0C
:1008C000E00A10EE901AADF814109DF814108DF88F
:1008D00004109DF815108DF80510D0ED010A60EE9A
:1008E000800AFDEEE00A10EE901AADF814109DF8A3
:1008F00014108DF806109DF815108DF80710D0ED26
:10090000020A60EE800AFDEEE00A10EE901AADF8E1
:1009100014109DF814108DF808109DF815108DF81E
:100920000910D0ED030A8DF80C3020EE800ABDEEE0
:10093000C00A10EE100AADF814009DF814008DF8EE
:100940000A009DF815008DF80B0052E18DF800109B
:100950008DF8012021218DF802108DF80300B9488F
:100960000EE053E08FE0FDE023E0FFE78DF800109C
:100970008DF8012020218DF802108DF80300B24877
:1009800001788DF8041041788DF8051081788DF884
:100990000610C1788DF8071001798DF8081041799B
:1009A0008DF8091081798DF80A10C0798DF80B0047
:1009B0001FE18DF800108DF801200B218DF8021039
:1009C0008DF80300A14890ED000ABDEEC00A10EEBC
:1009D000100AADF814009DF814008DF804009DF87D
:1009E00015008DF805009A4890ED000ABDEEC00A8A
:1009F00010EE100AADF814009DF814008DF80600F2
:100A00009DF815008DF8070092482BE08DF8001036
:100A10008DF801200A218DF802108DF803008E4810
:100A200090ED000ABDEEC00A10EE100AADF81400F9
:100A30009DF814008DF804009DF815008DF8050050
:100A4000864890ED000ABDEEC00A10EE100AADF81F
:100A500014009DF814008DF806009DF815008DF81F
:100A600007007F4890ED000ABDEEC00A10EE100AA4
:100A7000ADF814009DF814008DF808009DF81500DD
:100A80008DF80900B5E08DF800108DF801200120E7
:100A90008DF802000D208DF80300724890ED000AD9
:100AA000BDEEC00A10EE101AADF814109DF8141027
:100AB0008DF804109DF815108DF8051090ED010AC1
:100AC000BDEEC00A10EE101AADF814109DF8141007
:100AD0008DF806109DF815108DF8071090ED020A9C
:100AE000BDEEC00A10EE100AADF814009DF8140017
:100AF0008DF808009DF815008DF809005A4890ED12
:100B0000000ABDEEC00A10EE101AADF814109DF8E0
:100B100014108DF80A109DF815108DF80B1090ED3B
:100B2000010ABDEEC00A10EE101AADF814109DF8BF
:100B300014108DF80C109DF815108DF80D1090ED17
:100B4000020A8DF81030BDEEC00A10EE100AADF8A2
:100B500014009DF814008DF80E009DF815008DF816
:100B60000F0046E08DF800108DF8012003208DF86D
:100B7000020007208DF803003C48DFED3D0A90EDB0
:100B8000000A20EE200ADFED3B0ABDEEC00A10EE9F
:100B9000101AADF814109DF814108DF804109DF87B
:100BA00015108DF8051090ED010A20EE200ABDEE1B
:100BB000C00A10EE101AADF814109DF814108DF83C
:100BC00006109DF815108DF8071090ED020A20EE22
:100BD000200ABDEEC00A10EE100AADF814009DF810
:100BE00014008DF808009DF815008DF809008DF8A7
:100BF0000A3000209DF80340034602466D46211D41
:100C000005E0AE5C521C304400B203441BB291427A
:100C1000F7DC291D60549DF80310681D00240B5457
:100C200004E0295D14A003F099F8641C9DF803000A
:100C3000801DA042F5DC06B070BD00004000002021
:100C400000401C4628030020E80000205C03002030
:100C500090030020C40300202C040020F80300208F
:100C60006004002038030020440300201C030020FF
:100C70000000C8C20000C8422563000070B5012210
:100C80003021134800F0EAFD124803F0FBF9114847
:100C900003F0E0FA0F4C022609202672607200254C
:100CA000E571A571204603F0BCFB204603F0A4FAD1
:100CB000204603F05DFAA572204603F081FB062072
:100CC0006073E67220732046BDE8704003F033BBCA
:100CD000000802401C000020FEE70000014800F070
:100CE00079BB00008402002001681823CAB2103AC0
:100CF000B2FBF3F2054B6FF30901032A9B5CC3655A
:100D000000D9091D8165084670470000004C0008A5
:100D100010B5014600208B698A6A4FF0C07453B148
:100D2000B3F5005F15D072B1012A0CD0022A0AD0A7
:100D3000032A09D104E01AB1012A06D0022A03D1FC
:100D4000C96AC90100D5012010BDC96AA142FAD003
:100D500010BD002AF7D0012AF2D0022AF3D0032ACC
:100D6000F3D010BD7047000010B50CA002F0F6FFE4
:100D70000C4801F087FC00210A4801F0A3FE042181
:100D8000084801F09FFE0821064801F09BFEBDE8DF
:100D900010400C21034801F095BE00000A53746115
:100DA00072740A00B001002072B6FEE72DE9F04728
:100DB0004F48504E504C514DDFED4C0A2DED028BFB
:100DC000B0EE408A90ED000A86ED0B0A90ED010A24
:100DD00084ED0B0A90ED020A494885ED0B0A018863
:100DE00000EE101AB8EE400A9FED461A70EE411A56
:100DF0009FED450A454901EEE00A86ED000A96EDB1
:100E0000000AB0EEC00A10EE102A9FED412A8A4275
:100E100001DA86ED002A4288DFED3E1A00EE102A44
:100E2000B8EE400A70EE412AB0EE610A02EEE00A26
:100E300084ED000A94ED000AB0EEC00A10EE102A0C
:100E40008A4201DA84ED002AC08800EE100AB8EE6A
:100E5000400A30EE410A40EE601AC5ED001A95EDE9
:100E6000000AB0EEC00A10EE100AB0F17C5F01DAA1
:100E700085ED002A2848294FDFF8A49090ED000A5C
:100E8000DFF8A08087ED0B0A90ED010A89ED0B0ACF
:100E900090ED020A174888ED0B0AB0EE480A03F0FD
:100EA00089FDB0EE480A144803F084FDB0EE480A0C
:100EB000124803F07FFD96ED0C0A384687ED000AD4
:100EC00094ED0C0A89ED000A95ED0C0A88ED000AF4
:100ED000B0EE480A03F06EFDB0EE480ABDEC028B9E
:100EE0004846BDE8F04703F065BD00000AD7A33CC3
:100EF0001C0300202C040020F803002060040020C4
:100F0000280300200080BB448FC2753D0AD7A33D53
:100F100000000000713D0A3F440300205C030020F4
:100F200090030020C403002030B52DED048B8DB05C
:100F3000B0EE409AFE4CFF48FF4D94ED000AD0ED14
:100F4000000A30EE600A84ED000AD4ED010A90ED4B
:100F5000011A20EE000A30EEC11A84ED011AD4ED18
:100F6000020AD0ED021AF54801EE010A70EEE10A1C
:100F7000C4ED020AD5ED001A90ED002A00EEA00A99
:100F800071EEC21AC5ED001AD5ED011A90ED012AD5
:100F900071EEC21AC5ED011AD5ED021A90ED022AC2
:100FA00071EEC21AC5ED021AF6EE001A69EE219A28
:100FB00002F0EAFAD4ED000AB0EE008AF7EE008AF9
:100FC00060EE800AE049DF48CDED030AD4ED010A66
:100FD00060EE800ACDED040AD4ED020AD84C20EE72
:100FE000800A8DED050A94ED010AD4ED030A94ED13
:100FF000021A20EE200AD4ED000A00EEC10A20EE0B
:10100000080A8DED000A94ED000AD4ED010A94ED72
:10101000031A20EE200AD4ED020A00EE810A20EE27
:10102000080A8DED010A94ED010AD4ED010A94ED50
:10103000021A20EE200AD4ED020A00EE810AF0EE38
:10104000680A40EE480ACDED020A9DED040ADDED86
:10105000020A9DED011A20EE200ADDED050A00EEE0
:10106000C10ADDED090A30EE200A8DED090A9DED79
:10107000050ADDED000A9DED021A20EE200ADDEDE5
:10108000030A00EEC10ADDED0A0A30EE200A8DEDFA
:101090000A0A9DED030ADDED010A9DED001A20EE1E
:1010A000200ADDED040A00EEC10ADDED0B0A30EE88
:1010B000200A8DED0B0A9DED091A91ED000AD0ED85
:1010C000000A21EE001A41EE090AC0ED000A9DED6A
:1010D0000A1AD0ED010A21EE001A9C499C4A41EE01
:1010E000090AC0ED010A9DED0B1AD0ED020A21EEAE
:1010F000000A40EE090AC0ED020A95ED000AD1EDA2
:10110000000A9DED091A60EE200A92ED000A40EEF9
:10111000010A90ED001A70EE810A9DED061A70EE3C
:10112000810ACDED060AD5ED010A91ED001A60EEB7
:10113000810A9DED0A1A40EE010A90ED011A70EE47
:10114000810A9DED071A70EE810ACDED070AD5EDF3
:10115000020A91ED001A60EE810A9DED0B1A40EE35
:10116000010A90ED020A30EE800ADDED080A30EE49
:10117000200A8DED080A94ED010ADDED060A9DEDC9
:10118000071A20EEC00AD4ED020A00EEC10AD4ED1F
:10119000030A9DED081A00EEC10AD4ED000A40EEE4
:1011A000290AC4ED000A94ED000ADDED060A9DED62
:1011B000071A20EE200AD4ED030A00EEC10AD4ED8E
:1011C000020A9DED081A00EE810AD4ED010A40EEF4
:1011D000290AC4ED010A94ED030ADDED060A9DED2E
:1011E000071A20EE200AD4ED000A00EE810AD4EDA1
:1011F000010A9DED081A00EEC10AD4ED020A40EE84
:10120000290AC4ED020A94ED010ADDED070A9DEDFD
:10121000061A20EE200AD4ED020A00EEC10AD4ED2F
:10122000000A9DED081A00EE810AD4ED030A40EE93
:10123000290AC4ED030A94ED000AD4ED000A94EDE6
:10124000011A20EE200AD4ED010A00EE810AD4ED45
:10125000020A94ED021A00EE810AD4ED030A94ED1D
:10126000031A00EE810A02F08FF9D4ED000A394822
:1012700060EE800AC4ED000AD4ED010A60EE800A37
:10128000C4ED010AD4ED020A60EE800AC4ED020A40
:10129000D4ED030A20EE800A84ED030A95ED020ADC
:1012A000D0ED000A2C4D20EE200A10EE100AB0F10D
:1012B0007C5F04DC10EE100AB0F13F4F09D920EE3C
:1012C000090AD5ED020AB1EE001A40EE010AC5ED99
:1012D000020A94ED000AD4ED020A94ED031A20EEFE
:1012E000080A20EE200AD4ED010A60EE880A00EE1A
:1012F000C10A10EE100AFFF74DF941EC100B03F094
:10130000BFF89FED161B51EC100B53EC112BFFF7A0
:1013100041F89FED141B53EC112BFFF7ADF8FFF7CD
:101320007DF900EE100A85ED010A94ED010A1DE039
:101330003803002004030020440300201003002091
:101340004000002050030020E40000202C4C000846
:10135000E0000020284C00081C03002000000000D2
:101360000080664000000060FB21094020EE080A72
:10137000D4ED010A94ED021AD4ED011A40EE608A10
:1013800094ED020A20EE080AF0EE680A40EE410AE7
:1013900094ED020A94ED031A20EE080A20EE010AE9
:1013A00094ED001A21EE081A01EE210A02F0E2FD86
:1013B000DFED060A20EE200ADFED050A80EE201A96
:1013C00085ED001A0DB0BDEC048B30BD0000344338
:1013D000DB0F49402DE9F84304464FF00009CDF8F2
:1013E000009063484FF41651A56D0068B0FBF1F70B
:1013F0002E6894F85C10082000FA01F131420FD0F9
:1014000021680A6852070BD50A6822F004020A60B4
:1014100094F85C108840A860606D40F00100606541
:1014200094F85C104FF0010808FA01F0304208D03F
:1014300021684969090604D5A860606D40F0020082
:10144000606594F85C1004208840304208D0216820
:101450000968890704D5A860606D40F004006065E4
:1014600094F85C1010208840304218D02168096838
:10147000090714D5A86020680168490304D50068ED
:10148000000308D5A16C07E00168C90503D4016811
:1014900021F008010160216C09B12046884794F8C9
:1014A0005C1020208840304231D021680968C9068C
:1014B0002DD5A86094F8350005282068016806D06D
:1014C000490347D5006800031DD4616C1CE021F07E
:1014D000160101602068416921F080014161206CA2
:1014E00008B9A06C20B12068016821F008010160F2
:1014F00094F85C103F208840A86084F8358084F818
:101500003490216D1FE0E16B09B120468847606D82
:1015100000282BD0606DC00714D0052084F835005A
:101520002068016821F0010101600098401C0090D2
:10153000B84203D820680068C007F6D184F8358027
:1015400084F83490E16C002910D001B02046BDE849
:10155000F04308470168C905D5D4016821F010019E
:10156000016084F8358084F83490CCE7BDE8F883D6
:101570000C0000202DE9F041044600F075F9064604
:101580005CB1022084F83500002584F834502068CE
:10159000016821F0010101600DE00120BDE8F0814A
:1015A00000F062F9801B052805D920206065032022
:1015B00084F83500F2E720680068C007F0D122689F
:1015C000116820480140D4E901031843D4E90336E7
:1015D0003343184363691843A3691843E369184305
:1015E000236A18430843616A042903D1D4E90B1321
:1015F00019430843106020684069666A20F00701BB
:1016000030460E43012704280CD1A06A0643E06A45
:1016100040B12046FFF77CFB20B14020606584F894
:101620003570BAE7206846612046FFF75DFB94F805
:101630005C203F2191408160656584F83570002011
:10164000ACE700003F8010F070B5044600F00CF9E4
:101650000546601C02D004480078044400F004F9F8
:10166000401BA042FAD370BD000000202DE9F84FC6
:10167000DFF8BCA10022012503264FF00F090AF173
:10168000040BAAF1040E00BF0B6805FA02F4234014
:10169000A34270D10F7907F00307012F01D0022F69
:1016A00016D187684FEA420806FA08FC27EA0C07B9
:1016B000D1F80CC00CFA08FC4CEA070CC0F808C0C2
:1016C0004768A7430C79C4F3001494403C4344603A
:1016D0000C79E443A4070AD0C4684FEA420C06FA26
:1016E0000CF7BC438F6807FA0CF72743C7600C79E7
:1016F00004F00304022C12D1D40800EB840CDCF8B3
:1017000020405707FF0E09FA07F824EA0804D1F829
:10171000108008FA07F848EA0408CCF8208004682A
:101720004FEA420C06FA0CF7BC430F7907F00307A7
:1017300007FA0CF7274307604C6814F4403F70D059
:101740003C4C276847F480472760246822F0030751
:1017500004F480440094384C07EB040CDCF808488F
:1017600097074FEA177809FA08F7BC43334FB84296
:1017700002D1002724E054E0314FB84201D10127C3
:101780001EE0304FB84201D1022719E02E4FB84277
:1017900001D1032714E02D4FB84201D104270FE0F7
:1017A0002B4FB84201D105270AE02A4FB84201D198
:1017B000062705E0284FB84201D1072700E0082797
:1017C00007FA08F72743CCF80878DAF800405746BC
:1017D000D1F804C09C435FEACC2C00D51C433C608C
:1017E000DBF800405F46D1F804C09C435FEA8C2CD4
:1017F00000D51C433C60DEF800407746D1F804C0B9
:101800009C435FEA8C3C00D51C433C60084F083F7A
:101810003C68D1F804C09C435FEACC3C00D51C4333
:101820003C60521C102AFFF42FAFBDE8F88F000077
:10183000083C0140443802400030014000000240B2
:101840000004024000080240000C02400010024068
:101850000014024000180240001C02400AB18161DD
:1018600070470904FBE700000148806870470000EA
:1018700000000020024881680278114481607047AE
:10188000000000200B4810B5016841F400710160B0
:10189000016841F480610160016841F48071016078
:1018A000032000F06FF8002000F006F800F024F8A4
:1018B000002010BD003C024070B50D4D04464FF4B1
:1018C0007A712878B1FBF0F00A490968B1FBF0F0B1
:1018D00000F023FE48B9102C07D200222146501EEA
:1018E00000F030F800206C6070BD012070BD000079
:1018F000000000200C0000200A4808B5016841F4EF
:1019000080410160006800F4804000900548001F9D
:10191000016841F080510160006800F08050009043
:1019200008BD000044380240002809DB00F01F0217
:10193000012191404009800000F1E020C0F8001131
:1019400070470000F0B40E4B1B680C46C3F3022333
:10195000C3F10705042D00D90425191D072901D25B
:10196000002300E0DB1E012606FA05F1491E214096
:1019700099409E40761E16403143F0BC02F0FEB9FD
:101980000CED00E0064900F0070208684FF6FF037F
:10199000184040EA0220034A1043086070470000E4
:1019A0000CED00E00000FA052DE9F0470E460500B9
:1019B00065D0DFF81481D8F80000F7B200F0070016
:1019C000B04207D288F80070D8F8000000F0070095
:1019D000B04254D128683D4C810712D5400703D549
:1019E000206840F4E05020602878000703D5206884
:1019F00040F4604020602068A96820F0F0000843AF
:101A000020602878C0072DD030496868083901283F
:101A100012D0022813D0032811D0096889070029A1
:101A20002DDA216821F0030101432160FFF71CFF3B
:101A3000814641F2883A0EE009688903EFE70968B8
:101A40008901ECE7FFF710FFA0EB0901514502D92E
:101A50000320BDE8F0872068696800F00C00B0EB57
:101A6000810FEFD1D8F80010404601F00701B142D4
:101A700007D90770006800F00700B04201D00120CC
:101A8000E7E72878400705D52068E96820F4E050AA
:101A9000084320602878000706D52068296920F4CB
:101AA000604040EAC100206000F038F82168084A30
:101AB000C1F30311515CC84006490860064800683C
:101AC000FFF7FAFE0020C4E7003C0240083802405D
:101AD000084C00080C0000200400002004480549C0
:101AE00000680968044AC1F38221515CC84070470C
:101AF0000C00002008380240184C00080448054932
:101B000000680968044AC1F34231515CC84070471B
:101B10000C00002008380240184C0008154810B589
:101B2000006810F00C02144813D04110042A0FD0A2
:101B3000082A0ED10F4C241F2268236802F03F02AE
:101B40005B0207D52068C0F38810A0FB010106E006
:101B5000084610BD2168C1F38811A1FB00010023D4
:101B6000FEF72EFB2168C1F30141491C4900B0FB7F
:101B7000F1F010BD083802400024F4002DE9F84FC0
:101B800004006ED02078DFF84C93C007A9F104055B
:101B90004AD009F104000168C1F38101012908D08C
:101BA0000068C0F3810002280AD1D9F80000400281
:101BB00006D52868800337D560680028E1D033E077
:101BC0006068B0F5803F10D0B0F5A02F286810D025
:101BD00020F480302860286820F480202860606825
:101BE000A8B1FFF741FE06460DE0286840F48030BA
:101BF000F4E740F480202860F7E700BFFFF734FEE9
:101C0000801B642873D828688003F7D50CE0FFF7A1
:101C10002BFE064605E000BFFFF726FE801B64286A
:101C2000F0D828688003F7D42078DFF8AC828007EA
:101C30004FF0000A3ED5A748001D016811F00C0FB7
:101C400008D00068C0F3810002280BD1D9F8000049
:101C5000400207D42868800716D5E068012800D123
:101C600012E033E1E068B8B10120C8F80000FFF7E6
:101C7000FBFD064605E000BFFFF7F6FD801B0228CE
:101C8000C0D828688007F7D52868216920F0F800B7
:101C900040EAC10028600DE0C8F800A0FFF7E4FDAD
:101CA000064604E0FFF7E0FD801B02281FD82868E5
:101CB0008007F7D42078000722D5864F87486169CE
:101CC000703771B101210160FFF7CEFD064604E0D7
:101CD000FFF7CAFD801B022809D838688007F7D5AE
:101CE0000EE0C0F800A0FFF7BFFD064605E082E069
:101CF000FFF7BAFD801B02287DD838688007F7D42B
:101D00002078400768D5DFF8CCB100270BF13C0BF9
:101D1000DBF80000C0000BD4DBF8001041F080516C
:101D2000CBF80010DBF80000012700F08050009095
:101D30006B4E3068C00510D4306840F4807030605D
:101D4000FFF792FD009005E0FFF78EFD0099401A25
:101D5000022850D83068C005F6D55E4EA0686C36B3
:101D600001280FD00528306810D020F00100306025
:101D7000306820F004003060A068B8B1FFF774FD4F
:101D800000900FE0306840F00100F4E740F00400FC
:101D90003060F7E7FFF768FD0099411A41F288309B
:101DA000814266D830688007F4D50EE0FFF75CFD0D
:101DB000009007E0FFF758FD0099411A41F2883082
:101DC000814256D830688007F4D42FB1DBF8001078
:101DD00021F08051CBF80010A069C8B33D49091D1E
:101DE0000968C1F3810102294AD00228504607D070
:101DF000C8F8600000E03CE0FFF736FD04463BE039
:101E00004746C8F86000FFF72FFD064605E000BF13
:101E1000FFF72AFD801B02282BD828688001F7D401
:101E2000D4E907010843A16A2E4A490802EB01419F
:101E3000626A41EA8211084394F82C1040EA016179
:101E4000C9F8001001203866FFF70EFD044606E0D1
:101E50003EE000BFFFF708FD001B022809D82868F4
:101E60008001F7D534E000BFFFF7FEFC001B02281D
:101E700002D90320BDE8F88F28688001F4D427E058
:101E80000128F7D0D9F80000E26900F480019142FE
:101E90001CD1226A00F03F01914217D147F6C07170
:101EA000626A0140B1EB821F10D1A26A4FF0FF338A
:101EB00000F4403103EB5202B1EB024F06D194F82B
:101EC0002C1000F07060B0EB016F01D00120D1E761
:101ED0000020CFE70438024000004742800E47420E
:101EE000007000400000FFFF90F85100704770B58F
:101EF000040009D0606A002540B125616561A562D2
:101F000094F8510040B10CE0012070BD6068B0F55C
:101F1000827FF4D0E561F2E784F85050204600F06B
:101F200045F8022084F851002068016821F0400142
:101F30000160A088218900F4827001F40441084303
:101F4000A18901F400610843217C01F002010843EA
:101F5000217D01F001010843218B01F40071084348
:101F6000217F01F03801084394F8201001F080012E
:101F70000843218D01F40051084321680860A069DD
:101F8000042101EA104094F8241001F010010843E4
:101F9000216848602068C16921F40061C1616565FC
:101FA000012084F85100002070BD00002DE9F041AF
:101FB00086B0044614216846FEF73AF9294A21689A
:101FC00000242948022503260527DFF8A080914236
:101FD00013D1254914310A6842F480520A60096815
:101FE00001F480510591016841F00201016000682F
:101FF00000F002000590382028E01D4A91422ED1C1
:10200000194910310A6842F480420A60096801F4F3
:1020100080410591016841F004010160016801F00F
:1020200004010591016841F002010160006802AA03
:1020300000F0020005900C20CDE9000582E8D000F8
:1020400069460C48FFF712FB4FF48060CDE90005AC
:1020500002AA694682E8D0004046FFF707FB06B0B7
:10206000BDE8F081003001403038024000040240F9
:1020700000380040000802402DE9F84F044640684F
:102080000025984616460F464FF0040BB0F5827FA8
:1020900001D1A06888B194F85000012818D001201F
:1020A00084F85000FFF7E0FB814694F851004FF0B0
:1020B000000A01280ED0022582E084F851B01346B0
:1020C0000A462046CDF8008000F036F9BDE8F88FCA
:1020D0000220FBE7002F72D0002E70D084F851B0A0
:1020E000C4F854A0A763A687E687C4F830A0A4F874
:1020F00034A0A4F836A0C4F840A0C4F844A0A06856
:10210000B0F5004F09D12068016821F0400101605D
:102110002068016821F48041016020680168490657
:1021200003D4016841F040010160E068D8B139E0B2
:1021300020688168C90709D0007BA16B0870A06B7B
:10214000401CA063E08F401EE0870CE0FFF78CFB93
:10215000A0EB0901414503D3B8F1FF3F03D036E0BE
:10216000B8F1000F33D0E08F0028E1D11DE02068E6
:102170008168C90709D0C068A16B0880A06B801C6A
:10218000A063E08F401EE0870CE0FFF76DFBA0EB43
:102190000901414503D3B8F1FF3F03D017E0B8F17F
:1021A000000F14D0E08F0028E1D14A464146204676
:1021B00001F094FA08B120206065606D00B101253E
:1021C000012084F8510084F850A028467EE70325BA
:1021D000F6E72DE9F84F044690F8500000271D4619
:1021E0001646894601280DD04FF0010B84F850B0F7
:1021F000FFF73AFB804694F85100BA46012804D014
:10220000022793E00220BDE8F88FB9F1000F73D0E8
:10221000002E71D0032084F85100C4F854A0C4F8F3
:102220003090A686E686C4F838A0A4F83CA0A4F8AE
:102230003EA0C4F844A0C4F840A0A068B0F5004F88
:1022400009D12068016821F040010160206801681F
:1022500041F48041016020680168490603D40168A7
:1022600041F040010160E068B0F5006F606803D0A4
:1022700030B3012E24D041E008B1012E1CD1206BD7
:1022800021680088C86006E020688168890709D550
:10229000216B0988C160206B801C2063E08E401E8A
:1022A000E08609E0FFF7E0FAA0EB0800A84202D3BD
:1022B000681C01D031E07DB3E08E0028E4D120E03D
:1022C000206B21680078087306E020688168890720
:1022D00009D5216B09780173206B401C2063E08EC7
:1022E000401EE0860AE0FFF7BFFAA0EB0800A84214
:1022F00003D3681C02D010E017E06DB1E08E002817
:10230000E3D142462946204601F016FA08B12020C2
:102310006065A06818B106E0FFE7032706E02068C3
:10232000C16880680090606D00B1012784F851B0E9
:1023300084F850A0384666E72DE9F84F044690F837
:10234000500000270A9E1D4692468B464FF0010919
:1023500001280ED0012084F85000FFF785FA80464E
:1023600094F85100616801280CD0B1F5827F07D143
:1023700002E00220BDE8F88FA16809B9042801D065
:102380000227C2E0BBF1000F27D0BAF1000F24D022
:102390001DB394F85100042802D0052084F85100A0
:1023A00000206065C4F838A0E587A587C4F830B080
:1023B000E586A5862064606420680168490603D428
:1023C000016841F040010160E068B0F5006F6068AD
:1023D00005D0E8B3012D46D07FE0012795E008B194
:1023E000012D39D1206B21680088C860206B801CCA
:1023F0002063E08E401EE0862EE020688168890719
:102400000FD5E18E69B1B9F1010F0AD1216B0988AD
:10241000C160206B801C2063E08E401EE0864FF080
:10242000000920688168C9070CD0E18F51B1C068EC
:10243000A16B0880A06B801CA063E08F401EE0872A
:102440004FF00109FFF710FAA0EB0800B04200E0DE
:1024500009E001D3701C50D1E08E0028CDD1E08F6F
:102460000028CAD13FE0206B216800780873206BF8
:10247000401C2063E08E401EE0862EE020688168CC
:1024800089070FD5E18E69B1B9F1010F0AD1216B2E
:1024900009780173206B401C2063E08E401EE086AB
:1024A0004FF0000920688168C9070CD0E18F51B155
:1024B000C068A16B0870A06B401CA063E08F401E39
:1024C000E0874FF00109FFF7CFF9A0EB0800B04219
:1024D00002D3701C01D010E07EB1E08E0028CDD177
:1024E000E08F0028CAD142463146204601F024F947
:1024F00028B101272020606507E0032705E0A068D8
:1025000018B92068C16880680090012084F85100E3
:10251000002084F8500038462CE710B5401EB0F17A
:10252000807F01D3012010BD4FF0E02460610F21B6
:10253000601701F023FC0020A0610720206100202B
:1025400010BD70477047000070B590F83C20012A1C
:1025500032D0012480F83C40022280F83D200368FC
:102560005A689D6822F070060A6832435A60134B1D
:1025700002689A4214D0B2F1804F11D0104B9A42A7
:102580000ED0104B9A420BD00F4B9A4208D00F4BF3
:102590009A4205D00E4B9A4202D00E4B9A4204D179
:1025A000496825F080031943916080F83D4000217F
:1025B00080F83C10084670BD022070BD000001404C
:1025C0000004004000080040000C004000040140EE
:1025D000004001400018004010B5040003D094F8FA
:1025E0003D0010B107E0012010BD002084F83C0040
:1025F000204600F01FF8022084F83D00211D2068CD
:1026000001F07EF9012084F8460084F83E0084F849
:102610003F0084F8400084F8410084F8420084F8C8
:10262000430084F8440084F8450084F83D0000200D
:1026300010BD000008B501681048B1F1804F14D0FA
:102640000F4A914219D1016841F00201016000680E
:10265000002200F00200009001211D20FFF772F916
:10266000BDE808401D20FFF75FB9016841F0010196
:102670000160006800F00100009008BD4038024091
:102680000004004090F83D10012901D0012070475E
:10269000022180F83D100168CA6842F00102CA6058
:1026A00000681149884214D0B0F1804F11D00F4911
:1026B00088420ED00E4988420BD00E49884208D07D
:1026C0000D49884205D00D49884202D00C49884204
:1026D00004D1816801F00701062903D0016841F0A7
:1026E000010101600020704700000140000400402B
:1026F00000080040000C0040000401400040014080
:102700000018004070B5044690F83C0000250128F0
:1027100017D0012684F83C60022084F83D00206830
:10272000826822F0770222F47F4282600868502893
:1027300038D00DDC20284FD005DC90B3102811D103
:102740004AE0022070BD302846D040280AD13BE044
:1027500060282FD070280DD0B0F5805F03D0B0F581
:10276000005F12D0012584F83D60002084F83C0011
:10277000284670BDCB68D1E90121206801F031F90C
:102780002068816841F0770109E0CB68D1E9012137
:10279000206801F026F92068816841F48041816059
:1027A000E1E719E0CA684968206801F0EFF95021B3
:1027B000206806E0CA684968206801F0F8F96021DD
:1027C000206801F018F9CEE7CA684968206801F06E
:1027D000DDF940212068F4E7226801461046F0E761
:1027E000704770B50446006801694FF00005C943A1
:1027F000890715D4C168C943890711D4E91E01614D
:1028000001202077206880698007204602D0FFF7EA
:10281000E7FF04E000F0C0F8204600F052F9257709
:1028200020680169C943490717D4C168C9434907EA
:1028300013D46FF0040101610220207720688069C1
:1028400010F4407F204602D0FFF7CAFF04E000F0FA
:10285000A3F8204600F035F9257720680169C943BF
:10286000090716D4C168C943090712D46FF00801DB
:102870000161042020772068C0698007204602D0CB
:10288000FFF7AEFF04E000F087F8204600F019F9EA
:10289000257720680169C943C90617D4C168C943AF
:1028A000C90613D46FF01001016108202077206859
:1028B000C06910F4407F204602D0FFF791FF04E08A
:1028C00000F06AF8204600F0FCF8257720680169DE
:1028D000C943C90708D1C168C943C90704D1891EC2
:1028E0000161204600F052F920680169C9430906D8
:1028F00009D4C168C943090605D46FF0800101619C
:102900002046FFF71EFE20680169C943490609D425
:10291000C168C943490605D46FF0400101612046F2
:1029200000F058F920680169C94389060BD4C168D1
:10293000C943890607D46FF0200101612046BDE834
:102940007040FFF7FFBD70BD10B586B0044614217E
:102950006846FDF76DFC2068B0F1804F15D10C483A
:102960000021026842F001020260006800F00100EC
:1029700005900F2000900220CDE901010120CDE952
:10298000031069460348FEF771FE06B010BD000053
:102990003038024000000240704770B5044690F89D
:1029A0003C0000260D4601280FD0012084F83C0091
:1029B0006AB1042A1DD0082A2FD00C2A3FD0012644
:1029C000002084F83C00304670BD022070BD2068B5
:1029D00001F01AF82068816941F0080181612068DE
:1029E000816921F004018161206881692A691143AC
:1029F00011E0206801F038F82068816941F4006135
:102A000081612068816921F4806181612068816928
:102A10002A6941EA02218161D2E7206801F05AF86F
:102A20002068C16941F00801C1612068C16921F0D5
:102A30000401C1612068C1692A69114311E020685D
:102A400001F07CF82068C16941F40061C16120682F
:102A5000C16921F48061C1612068C1692A6941EAC4
:102A60000221C161ACE710B5040003D094F83D0029
:102A700010B107E0012010BD002084F83C00204682
:102A800000F01EF8022084F83D00211D206800F0AF
:102A900037FF012084F8460084F83E0084F83F00A8
:102AA00084F8400084F8410084F8420084F8430030
:102AB00084F8440084F8450084F83D00002010BDEF
:102AC0007047704710B50446022249B104290ED060
:102AD000082913D094F84100012816D0012010BD18
:102AE00094F83E000128F9D184F83E200FE094F8D4
:102AF0003F000128F2D184F83F2008E094F840001C
:102B00000128EBD184F8402001E084F84120012223
:102B1000206800F059FF16492068164A884201D003
:102B2000904203D1436C43F40043436420688842DD
:102B300013D0B0F1804F10D00F4988420DD00F490B
:102B400088420AD00E49884207D0904205D00D49EC
:102B5000884202D00C49884204D1816801F0070103
:102B6000062903D0016841F001010160002010BD79
:102B70000000014000040140000400400008004043
:102B8000000C0040004001400018004010B52DED41
:102B9000028B00F017FD0D49A1F10C0001F07EFA47
:102BA0000A49881F01F076FB01F022FD9FED088A9B
:102BB000B0EE480AFEF7B8F9B0EE480AFEF7F6F8AC
:102BC000BDEC028BBDE8104000F04EBA1C000020A6
:102BD0000AD7A33B704770B5040004D094F83D00B9
:102BE000002510B106E0012070BD84F83C5020465D
:102BF00000F022F8242084F83D002068C16821F408
:102C00000051C160204600F0E5FF2068016921F411
:102C1000904101612068416921F02A0141612068E9
:102C2000C16841F40051C1602564202084F83D0052
:102C300084F83E00002070BD70B586B006461421B1
:102C40006846FDF7F5FA2049306888423AD11F48B6
:102C50000025016841F010010160006800F01000DB
:102C600005901A481438016841F0010101600068BC
:102C7000694600F0010005904FF4C060009002200A
:102C8000CDE9010503200390072004901048FEF7CA
:102C9000EDFC114C0F4820604FF000606060402058
:102CA000C4E902050001C4E904058001A561C4E985
:102CB000075020466562FEF75DFC08B1FEF774F828
:102CC0007463A66306B070BD001001404438024032
:102CD00000000240B8640240840200202DE9F8435D
:102CE000044690F83D001F4616460D4620284CD15C
:102CF000C5B1BEB194F83C00012846D0012084F84B
:102D00003C004FF00008C4F84080212084F83D00CA
:102D1000FEF7AAFDA6848146E684A068B0F5805F30
:102D200003D004E00120BDE8F883206928B12E46D5
:102D30005FF0000584F83C800EE00026FAE7802171
:102D4000204600F0CDFFA0B9AEB116F8010B216806
:102D50004860E08C401EE084E08C4B464FF000025F
:102D600000970028EBD14FF04001204600F0B8FF5B
:102D700030B10320D7E735F8020BC0F30800E6E7CF
:102D8000202084F83D000020CDE70220CBE7FEE7BD
:102D9000094808B5016841F480010160006800221B
:102DA00000F48000009011464620FEF7CBFDBDE800
:102DB00008404620FEF7B8BD30380240F0B587B075
:102DC00014216846FDF734FA25480024016841F0D3
:102DD00080010160016801F080010591016841F006
:102DE00004010160016801F004010591016841F0EE
:102DF00001010160016801F001010591016841F0E4
:102E0000020101600068174E00F0020005900022E8
:102E100030213046FEF722FD134F0122C0213846F3
:102E2000FEF71CFD30200125CDE900050320CDE98A
:102E3000024069463046FEF719FCC020CDE9000586
:102E40000220CDE9024069463846FEF70FFC280211
:102E50008DE8310069463846FEF708FC07B0F0BD42
:102E6000303802400008024000040240104810B50B
:102E70000E4901604FF48271416000218160C160A0
:102E80004FF400720161C0E905121822C0E9072160
:102E9000416281620A21C162FFF729F8002803D04C
:102EA000BDE81040FDF780BF10BD000000300140BC
:102EB00000010020104810B50E4901604FF48271E6
:102EC000416000218160C1604FF400720161C0E97E
:102ED00005121022C0E90721416281620A21C16204
:102EE000FFF705F8002803D0BDE81040FDF75CBFF0
:102EF00010BD0000003800405801002010B58EB011
:102F000000240794089409940A940B941C216846A1
:102F10000C94FDF78DF92A484FF080410160532150
:102F2000C0E9011442F20F71C0E9031480218161EC
:102F3000FFF752FB08B1FDF737FF4FF480500790C1
:102F400007A91F48FFF7DEFB08B1FDF72DFF1C485E
:102F5000FFF789FD08B1FDF727FF0B940BA918486F
:102F60000C94FFF7F1FA08B1FDF71EFF6020CDE9E0
:102F7000000402940022694611480494FFF70DFDF5
:102F800008B1FDF711FF042269460D48FFF705FD62
:102F900008B1FDF709FF082269460948FFF7FDFC63
:102FA00008B1FDF701FF0C2269460548FFF7F5FC63
:102FB00008B1FDF7F9FE0248FFF7C6FC0EB010BDE0
:102FC000B001002010B586B0002417480094019489
:102FD000029403940494134905940160A721C0E965
:102FE000011441F28731C0E9031480218161FFF7A8
:102FF000F3FA08B1FDF7D8FE4FF48050009069460F
:103000000948FFF77FFB08B1FDF7CEFE049404A941
:1030100005480594FFF798FA002801D0FDF7C4FE93
:1030200006B010BD00040040F80100200C4810B5A7
:103030000A4901604FF4E1314160002181600C22B6
:10304000C160C0E904128161C161FFF7C4FD0028BD
:1030500003D0BDE81040FDF7A7BE10BD0010014031
:1030600040020020FEE700002DE9F047A84D4FF494
:10307000FA642DED028B2889DFF89892A0420CD1DA
:10308000D9F8002041105163D9F800209163D9F894
:103090000020D163D9F8000001646889DFF87882E4
:1030A000A04219D101F060FB01F0BAFB9B4801F08E
:1030B00073FC9B4801F070FC9A4801F06DFC9A4843
:1030C00001F06AFC994801F067FC994801F064FC42
:1030D0009FED980A88ED020AA88800EE100AB8EE63
:1030E000400ADFED950A70EE600A9FED941A9FED9D
:1030F000940A8E4D8C4E00EE810AD5ED0C0AFDEE41
:10310000E00A10EE900AD6ED0C0A01B2FDEEE00ADC
:1031100010EE900A01FA80F1854FD7ED0C0AFDEE12
:10312000E00A10EE900A01FA80F1BDEEC00A10EE3E
:10313000100A01FA80F001B282480180D6ED0C0A33
:10314000FDEEE00A10EE902AD5ED0C0A13B2FDEE6A
:10315000E00A10EE902AD7ED0C0A12B2FDEEE00A5A
:103160009B1A10EE902A12B29B1A10EE102A03FA44
:1031700082F212B24280D5ED0C0AFDEEE00A10EEAA
:10318000903AD6ED0C0A0FFA83FCFDEEE00A10EE41
:10319000903AD7ED0C0A1BB2FDEEE00AACEB030C43
:1031A00010EE903A1BB2ACEB030C10EE103A0CFA96
:1031B00083F31BB28380D5ED0C0AFDEEE00A10EE1E
:1031C000905AD6ED0C0A2DB2FDEEE00A10EE906A90
:1031D00005FA86F6D7ED0C0AFDEEE00A10EE905ADD
:1031E0002DB2AE1B10EE105A06FA85F52DB24FF433
:1031F0006176C580B14201DA314602E0A14200DDCC
:1032000021460180B24201DA324602E0A24200DDEC
:1032100022464280B34201DA334602E0A34200DD97
:1032200023468380B54201DA344602E0A54200DC41
:103230002C46C480D9F800506963D9F800108A631D
:10324000D9F80010CB63D9F8000004643348B7EE16
:10325000008A98ED010AD0ED000A444670EE880A13
:10326000B4EEE00AF1EE10FA0AD9D0ED000A94EDBE
:10327000010A70EEC80AB4EEE00AF1EE10FA05DBBE
:10328000294801F089FB254801F086FB244894ED8C
:10329000000AD0ED000A70EE880AB4EEE00AF1EE02
:1032A00010FA0AD9D0ED000A94ED000A70EEC80AAF
:1032B000B4EEE00AF1EE10FA05DB1C4801F06CFBFD
:1032C000174801F069FB174894ED020AD0ED000A97
:1032D00070EE880AB4EEE00AF1EE10FA0AD9D0EDE9
:1032E000000A94ED020A70EEC80AB4EEE00AF1EEAC
:1032F00010FA09DB0E4801F04FFBBDEC028B0948C8
:10330000BDE8F04701F048BBBDEC028BBDE8F0879B
:1033100028030020B00100201C030020F803002037
:103320002C040020600400205C0300209003002097
:10333000C40300200000000000805B449A99993F7C
:1033400000805444E80000200A4910B50A684FF490
:10335000E16050630A6890630A68D0630968086492
:1033600040F2DC542046FEF76FF92046BDE81040DD
:10337000FEF76AB9B0010020FEE700001CB50FA1FE
:103380000522D1E90001CDE900016946302000F0B5
:10339000A3F805226946102000F044F80020694691
:1033A0000A5CA52A03D1401CC0B20528F8D3052821
:1033B00001D001201CBD00201CBD0000A5A5A5A5B5
:1033C000A500000010B5154C002240212046FEF754
:1033D00045FA052212492A2000F07EF8002121201A
:1033E00000F09EF80121222000F09AF8012125200A
:1033F00000F096F82021312000F092F807212620D5
:1034000000F08EF80F21202000F08AF820460122DB
:10341000BDE810404021FEF721BA00000004024040
:10342000204C00082DE9FC410446FF200F4F1546B3
:103430000E468DF80400002280213846FEF70EFA71
:10344000204600F03BF904464FF0FF3000902B4639
:10345000324601A90648FEF76FFF01228021384657
:10346000FEF7FCF92046BDE8FC81000000040240A4
:103470000001002070B50A4D044600228021284634
:10348000FEF7ECF9204600F019F9FF2000F016F9DC
:103490000446012280212846FEF7E0F9204670BD4F
:1034A0000004024070B505460720FFF7E3FF04461D
:1034B0000146272000F034F860060AD5202229466C
:1034C0006120FFF7AFFFFF21E22000F029F8002084
:1034D00070BD012070BD00002DE9FC410E4D144669
:1034E0000E460746002280212846FEF7B7F93846E7
:1034F00000F0E4F84FF0FF300090234601AA314677
:103500000648FEF719FF012280212846FEF7A6F99A
:103510009DF80400BDE8FC81000402400001002089
:1035200070B50B4D0E460446002280212846FEF75A
:1035300095F9204600F0C2F80446304600F0BEF887
:10354000012280212846FEF789F9204670BD00003F
:103550000004024010B502E006A000F0FFFBFFF7F8
:103560000DFF0028F8D1FFF72DFFBDE8104003A0A4
:1035700000F0F4BB4552524F520A000053554343EA
:10358000454400007047000010EE100AF6EE000AF5
:103590000B4960EE200AA1EB600000EE100AB7EEC6
:1035A000081A20EE802AF0EE411A42EE401A21EE6F
:1035B000800A60EE800A00EEC01A21EE000A704711
:1035C000DF59375F10B53B48FFF76CFF00286FD11C
:1035D0000021384A0846135C401C1944C9B21F2810
:1035E000F9DBD07F884263D11078AA2860D1507867
:1035F000AF285DD19088304944BA4FF47A735800AF
:103600000C809C4201D21C4602E0844200D9044650
:103610000C80D48864BA4C809C4201D21C4602E0E3
:10362000844200D904464C80148964BA8C809C4240
:1036300001D21C4602E0844200D904468C805489A1
:1036400064BACC809C4201D21C4602E0844200D97C
:103650000446CC80948964BA0C819C4201D21C46F9
:1036600002E0844200D904460C81D48964BA4C81BA
:103670009C4201D21C4602E0844200D904464C819F
:10368000148A64BA8C819C4201D2184602E08442BA
:1036900000D820468881508A40BAC881984201D219
:1036A000184604E04FF47A62904200D91046C8816F
:1036B00010BD0000E40200202803002001B582B004
:1036C0004FF47A700090012301AA02A90248FEF784
:1036D00033FE9DF804000EBD00010020F8B504463D
:1036E00040684FF48273984221D1A0684FF48065FE
:1036F000B0F5004F01D0A8420AD12068066826F034
:10370000400606606068984211D1A068A8420ED0B9
:1037100000920B4600228021204600F039F8002854
:1037200004D0606D40F0200060650320F8BD009279
:103730000B4600220121EFE738B504461248134B2F
:103740000068B0FBF3F04FF47A7358430090606860
:10375000B0F5827F0DD10B460092002280212046D9
:1037600000F016F870B1606D40F020006065032035
:1037700038BD009830B1401E009020688068C0437A
:103780000006F6D5002038BD0C00002000366E0182
:103790002DE9F8431E46914688460446089DFEF7EB
:1037A00063F8401B351AFEF75FF8074625480068A6
:1037B000C0F3CB30684338E0701C37D0FEF754F8C4
:1037C000C01BA84203D215B1009860B32CE020685A
:1037D000416821F0E00141606068B0F5827F0BD163
:1037E000A068B0F5004F02D0B0F5806F04D120681A
:1037F000016821F040010160A06AB0F5005F09D1C5
:103800002068016821F4005101602068016841F4DA
:1038100000510160012084F85100002084F850001C
:103820000320BDE8F8830025401E009020688168D1
:1038300038EA010004D000214945BDD10020F0E75D
:103840000121F9E70C0000207047FEF713B80000D3
:1038500030B593B030216846FCF7EAFC14210CA87F
:10386000FCF7E6FC1D480025016841F0805101602D
:10387000006800F0805011901948016841F48041BF
:1038800001600068022400F4804011900120009043
:10389000000401908001CDE9064008AA0420A82177
:1038A00082E813000B906846FEF768F908B172B61B
:1038B000FEE70CA90F2081E831004FF4A0500F90D3
:1038C0004FF48050109005210CA8FEF76DF80028E9
:1038D00001D072B6FEE713B030BD000040380240A0
:1038E000007000400248016841F4700101607047B7
:1038F00088ED00E00148FEF774BF0000F8010020E9
:10390000F0B50268254C264D264E274F274B4FF029
:10391000804CA04209D0604507D0A84205D0B042F3
:1039200003D0B84201D0984204D122F0700E4A6808
:1039300042EA0E02A0421BD0604519D0A84217D01F
:10394000B04215D0B84213D0984211D0184DA842B9
:103950000ED0184DA8420BD0174DA84208D0174DD5
:10396000A84205D0164DA84202D0164DA84203D158
:1039700022F44075CA682A434D6922F080022A4326
:1039800002608A68C2620A688262A04201D09842DC
:1039900001D10969016301214161F0BD00000140CD
:1039A0000004004000080040000C004000040140FA
:1039B0000040014000440140004801400018004020
:1039C000001C00400020004010B501F01F03012141
:1039D000046A99408C430462016A9A40114301626F
:1039E00010BD10B5846842EA032224F47F440A43E0
:1039F0002243826010BD826822F070020A4342F0C6
:103A00000701816070470000F0B5026A22F00102F0
:103A10000262036A42688469124E24F073050C68DE
:103A20002C4323F002058B682B430D4DA84201D097
:103A3000B04205D123F00807CB683B4323F00403D1
:103A4000A84201D0B04205D14D6922F4407215431D
:103A50008A692A4342608461496841630362F0BD18
:103A60000000014000040140F0B5026A22F010029B
:103A70000262026A436884690D6824F4E64444EAF9
:103A800005248D6822F0200242EA05120F4D104EE7
:103A9000A84201D0B04206D1CF6822F0800242EAAB
:103AA000071222F04002A84201D0B04207D14D696E
:103AB00023F4406343EA85038D6943EA8503436049
:103AC0008461496881630262F0BD0000000001402A
:103AD00000040140F0B5026A22F480720262026AB8
:103AE0004368C46922F4007224F073050C68124E16
:103AF0002C438D6842EA05220E4DA84201D0B04207
:103B000006D1CF6822F4006242EA072222F48062E2
:103B1000A84201D0B04207D14D6923F4405343EA93
:103B200005138D6943EA05134360C4614968C163A5
:103B30000262F0BD000001400004014030B5026A9D
:103B400022F480520262046A4268C3690D6823F459
:103B5000E64343EA05238D6824F4005444EA05341F
:103B6000084DA84202D0084DA84204D14D6922F464
:103B7000804242EA85124260C3614968016404627E
:103B800030BD0000000001400004014010B5036A90
:103B9000046A24F001040462846924F0F00444EA15
:103BA000021423F00A020A438461026210BD10B5B8
:103BB000036A23F0100303628369046A23F47043E9
:103BC00043EA023224F0A00343EA01118261016258
:103BD00010BD000070B5044600680169E26821F478
:103BE0004051114301612169A068E269084361699C
:103BF000114308432168CA6849F20C639A4302439F
:103C0000CA6020684169A26921F440711143416191
:103C100031492068884202D03049884202D1FDF7FC
:103C20006DFF01E0FDF75AFFE269002319216425C9
:103C30003226B2F5004F626828D0A0FB0101930F35
:103C40009200FCF7BDFA0146B0FBF5F06FF01802E8
:103C5000504301EB800006EB0010B0FBF5F000F0E4
:103C6000F002B1FBF5F002EB0012B1FBF5F06FF0E2
:103C70001803584301EB800006EB0010B0FBF5F091
:103C800000F00F0021681044886070BDA0FB0101A6
:103C900092185B41FCF794FA0146B0FBF5F0020183
:103CA000B1FBF5F06FF01803584301EB800006EB11
:103CB000C000B0FBF5F000F0F80002EB4002B1FBF1
:103CC000F5F0584301EB800006EBC000B0FBF5F0C7
:103CD00000F00700D6E7000000100140001401408A
:103CE0002DE9F041984617460E460446069D27E00A
:103CF000681C25D02DB1FDF7B7FDA0EB0800A84248
:103D00001ED920680C3050E8001F21F4D07140E823
:103D10000012002AF5D12068143050E8001F21F06D
:103D2000010140E80012002AF5D1202084F83D006E
:103D300084F83E00002084F83C000320BDE8F081B8
:103D40002068006836EA000004D00020B842CFD0D6
:103D50000020F3E70120F9E7FEE700000FB4054B70
:103D600010B503A9044A029800F028F810BC5DF8C9
:103D700014FB00007D460008F40000200907090E2E
:103D8000002804DB00F1E02080F80014704700F008
:103D90000F0000F1E02080F8141D704702E008C811
:103DA000121F08C1002AFAD170477047002001E0B5
:103DB00001C1121F002AFBD1704700002DE9FF4FFF
:103DC0008BB09A460F460546002606E025280BD004
:103DD00052460D9990476D1C761C28780028F5D125
:103DE0000FB03046BDE8F08F0024A04601226049A4
:103DF00000E0044315F8013F203B02FA03F00842BB
:103E0000F7D128782E2817D115F8010F44F00404B3
:103E10002A280ED06FF02F022878A0F1300109294E
:103E20000AD808EB880102EB410100EB01086D1C88
:103E3000F2E757F8048B6D1C287869283ED006DC21
:103E40000028CDD063280BD0642804D136E0732835
:103E500010D075284BD052460D999047761C85E0BE
:103E600017F8040B8DF8000000208DF80100E946DA
:103E7000012003E057F8049B4FF0FF3061074FF03B
:103E8000000401D40AE0641C44450DDA8442FADBE4
:103E900019F804100029F6D106E0641C8442FCDB0A
:103EA00019F804100029F8D1264404E019F8010B90
:103EB00052460D999047641EF8D257E001CF4FF05B
:103EC0000A0B002802DA40422D2102E0210504D528
:103ED0002B218DF82410012103E0E10705D02021DA
:103EE000F7E70DF1200908910CE00021F9E701CF77
:103EF0004FF00A0BF9E75946FCF7ACFB01F1300231
:103F000009F8012D0028F6D1ADEB090000F1200BD6
:103F1000600701D44FF00108D84502DDA8EB0B0083
:103F200000E000208046002406E009A85246005D1B
:103F30000D999047641C761C08988442F5DB04E0D8
:103F4000302052460D999047761CB8F10001A8F137
:103F50000108F5DC05E019F8010B52460D99904770
:103F6000761CBBF10001ABF1010BF4DC6D1C34E7F6
:103F700009280100F5EEC00AB0EE402AF1EE10FA71
:103F800002DDF0EE601A01E0F1EE601AB5EEC02A33
:103F9000F1EE10FA02DDB0EE421A01E0B1EE421A83
:103FA000F4EEC11AF1EE10FA02DDF0EE612A01E042
:103FB000F0EE412AF5EEC02AF1EE10FA0CD0F4EE44
:103FC000C11AF1EE10FA02D2B0EE613A01E0B0EEA1
:103FD000413A83EE220A01E09FED200A9FED203A4C
:103FE000DFED203A9FED214A30EE033A60EE002AE1
:103FF000B4EEE11A23EE233ADFED1B3A70EE233ADA
:1040000063EE233A9FED1A3A00EE043A9FED194A07
:1040100033EE223A63EE833AB7EE003A00EE043A0A
:104020009FED150A02EE803A83EE830AF1EE10FA54
:1040300003DD9FED121A31EE400AF5EEC00AF1EEF3
:1040400010FA03D2DFED0E0A30EEC00AB5EEC02A38
:10405000F1EE10FA01D2B1EE400A70470000000004
:104060008DA4DFC039094EBDCCE0A834F08E533F9B
:10407000B10B364069A2163E99FB243FDB0FC93FC6
:10408000DB0F494010B5044600F04AF8002804D17F
:104090002046BDE8104000F035B910BD1CB50446FF
:1040A0000B4606226946122000F01CFB10B14FF0AF
:1040B000FF301CBDBDF8001009B200EE101A2180BF
:1040C0001649F8EEC00A9FED130A20EE801ADFEDC4
:1040D000120A21EE201A81ED001ABDF8022012B258
:1040E00001EE102A6280B8EEC11A21EE001A21EE0C
:1040F000201A81ED011ABDF8042012B201EE102A37
:10410000A280B8EEC11A21EE000A20EE200A81ED4D
:10411000020A1CBD0F5CEB41000000383803002090
:1041200038B5002504468DF8005000F01DFC00282D
:1041300010D1207901280ED06571234601226946ED
:10414000002000F0CFFA002804D19DF800101E29AD
:104150000CD0C01E38BD012060710246234669465E
:10416000002000F0BFFA0028E7D038BD217038BD2C
:104170002DE9F84F0546002004468046074600908A
:10418000284600F0F1FB002817D16E7A95F80890C8
:1041900095F807A0701F082800D30124B9F1020F79
:1041A00001D94FF00108BAF1030F00D9012744EA01
:1041B00008043C4303D06FF00700BDE8F88F2B469E
:1041C00002226946402000F08DFA0028F5D19DF8C2
:1041D00000002B4666F3030069F306108DF800001B
:1041E0009DF8011002226AF301018DF80110694661
:1041F000402000F083FCE0E738B5054600F0B4FB52
:10420000040025D1A97919B1032905D0441F1FE065
:104210008DF80000042002E003218DF800108DF8D5
:1042200001002B46012269467C2000F067FC040057
:104230000ED1296A052088472B4601227D200DF1E9
:10424000010100F05BFC040002D1296A05208847C7
:10425000204638BD38B5054600F086FB040017D16E
:10426000B6208DF800002B46012269467E2000F022
:1042700045FC04000CD1296A0120884728790128CF
:1042800006D12B4601226946002000F02BFA044695
:10429000204638BD1CB504460B460622694602205E
:1042A00000F050FA10B14FF0FF301CBDBDF8001007
:1042B00009B200EE101A21801149F8EEC00A9FEDF4
:1042C0000F0A60EE800AC1ED000ABDF8022012B2AA
:1042D00000EE902A6280F8EEE00A60EE800AC1EDFE
:1042E000010ABDF8042012B200EE902AA280F8EE76
:1042F000E00A20EE800A81ED020A1CBD00007A3C33
:104300004403002038B5044600208DF80000204604
:1043100000F036FB00280BD123460122694600F04D
:1043200011FA002804D19DF800100F2901D0C01EF9
:1043300038BD617038BD2DE9F843002780463C4602
:1043400000F01EFB00280ED198F80D6098F80B5075
:104350004046072E00D90124042D00D901273C43F3
:1043600003D06FF00700BDE8F883034601226946D9
:10437000102000F0E7F90028F5D19DF80000434631
:1043800066F303008DF8000001226946102000F05A
:10439000C7FB0028E7D14346012269460F2000F001
:1043A000D1F90028DFD19DF80000434665F30200F3
:1043B0008DF80000012269460F2000F0B1FBD2E722
:1043C0007FB50546012600F0DBFA040026D12B4616
:1043D000012202A9112000F0B5F904001ED1A87A2B
:1043E0008DF80000802804D19DF80810202900D104
:1043F0000026202803D19DF8080080280CD05EB14B
:104400002B4601226946112000F08AFB040005D1E9
:10441000296A1E20884701E06FF0040404B020469A
:1044200070BD38B5054600F0ABFA04000DD1B620DA
:104430008DF800002B4601226946142000F070FB25
:10444000040002D1296A1E208847204638BD10B5D5
:104450000320FCF705FA0120FCF702FA0A20FCF71A
:10446000FFF90B20FCF7FCF92020FCF7F9F92120DB
:10447000FCF7F6F9BDE810400420FCF7F1B90000A4
:1044800010B52DED0A8BB0EE408AF0EE608A51EC4B
:10449000180BFCF760F89FED46AB203041280ED397
:1044A0009FED450BBDEC0A8B10BD00BF53EC1A2BE2
:1044B00051EC180BFBF768FF41EC180B01E09FED86
:1044C000409B51EC180B53EC192BFCF78FF8EDD3F4
:1044D0009FED3DCB9FED3E9B9FED3FBB53EC1C2BD7
:1044E00051EC180BFCF76AF808D253EC1A2B51EC7C
:1044F000180BFBF7A8FE41EC180BEFE753EC192B58
:1045000051EC180BFCF772F80AD253EC192B51EC52
:10451000180BFBF739FF41EC100B53EC192B10E093
:1045200053EC1B2B51EC180BFCF748F80FD253EC53
:10453000192B51EC180BFBF786FE53EC1B2B41ECAF
:10454000100B51EC100BFBF722FF41EC180B53EC56
:10455000182B51EC180BFBF71DFFFCF75FF809EE69
:10456000100ADFED1F0A9FED1F0A09EE200ADFED9A
:104570001E0A49EE000A9FED1D0A09EE200A10EE00
:10458000100AFCF707F841EC1A0B19EE100AFCF7B9
:1045900001F853EC182BFBF7FDFE53EC1A2BFBF73D
:1045A000F9FE53EC182BFBF74EFE41EC100B79E7AC
:1045B00000000060FB211940000000000000000026
:1045C00000000060FB21094000000060FB2109C0E1
:1045D00000000060FB21F93F00000060FB21F9BFF3
:1045E0009A7C2E3692E741B99730083C15A82ABE2E
:1045F00070B5204D1E4C204895ED000A00F032F9B0
:104600001D4E06F1180096ED020A85ED000A95EDA3
:10461000010A00F027F996ED080A06F1300085ED51
:10462000010A95ED020A00F01DF996ED0E0A06F159
:10463000480085ED020A94ED000A00F013F996EDAA
:10464000140A06F1600084ED000A94ED010A00F0FE
:1046500009F996ED1A0A06F1780084ED010A94ED45
:10466000020A00F0FFF896ED200A84ED020A70BD00
:1046700044030020380300205000002013B54FF6FB
:10468000FF73012269460248FEF728FB00981CBD13
:104690004002002010B5002821D0114B0022001F3D
:1046A000196803E0814203D80A4649680029F9D114
:1046B00052B11368841A9C4204D1006818441060F7
:1046C000104602E0506000E0186039B102680B1A31
:1046D000934203D10B681A4402604968416010BDDF
:1046E000F80000202DE9F0478046587916463044FE
:1046F00087B21C468946384600F000F90546207905
:10470000012801D148F08008D4F818C0A0783B46B1
:104710002A464146E047010008D06FF001010C46EF
:104720002846FFF7B7FF2046BDE8F087002006E0E7
:1047300062792B18D35C09F80030401C80B2B0427B
:10474000F6D3ECE770B51C79012C01D140F0800064
:10475000DC789D6913460A4601462046A847002892
:1047600001D06FF0010070BD7FB5254D254E0024AE
:1047700025492648FFF792FC23492548FFF78AFD83
:10478000D6ED000A9DED002A95ED000A95ED011A7F
:1047900070EE820AD6ED011A641CCDED000ADDED43
:1047A000010AC82C71EEA00ACDED010ADDED020A66
:1047B00030EE200A8DED020A9DED030A31EE000A6B
:1047C0008DED030AD4DBDDED000A9FED120A1248DD
:1047D00080EE801A80ED001ADDED010A80EE801A6D
:1047E00080ED011ADDED020A0C4880EE801A80EDA2
:1047F000001ADDED030A80EE801A80ED011A7FBDFC
:1048000044030020380300201C000020100000207A
:10481000160000200000484304030020100300207D
:104820000C48B7EE000A80ED000A9FED0B0A80ED00
:10483000010A80ED020A80ED030A084880ED000AB3
:1048400080ED010A80ED020A054880ED010A80ED45
:10485000000A7047400000200000000050030020C4
:104860001C030020D0ED000A90ED041A70EE810ABE
:10487000C0ED010A90ED051A30EE811AC0EE811AE2
:10488000C0ED031A90ED021A30EE410A01EE801AD3
:10489000B7EE000A30EE610A80ED021A20EE200A1F
:1048A00080ED000A7047000000234FF48064224628
:1048B000194610484FF0FF300023224619460E4893
:1048C0004FF0FF30FCF7DEFFFEF7C2FFFEF776FA8F
:1048D000FEF75EFAFEF7CAFAFEF7A8FBFEF7EAFA61
:1048E000FEF70CFBFEF76EFBFBF7A2FFFFF7AFFD39
:1048F000FCE70000F0000020F4000020F0B50B30D1
:10490000154D20F007010024144A0FE003688B4284
:104910000BD38B4205D95E1A43184768C3E9006779
:1049200000E04368136002C004E0021D1068002824
:10493000ECD12046002802D1286808B10020F0BD43
:10494000064A07481060074A121A22F00702C0E917
:10495000002401202860D7E7FC000020F800002098
:104960009C0400209806002038B1816929B1C169F2
:1049700019B1006A08B1002070474FF0FF3070474E
:1049800038B1816929B1C16919B1006A08B1002043
:1049900070474FF0FF3070479FED050A80ED030A26
:1049A00080ED020A80ED0C0A80ED010A70470000DC
:1049B0000000000010B504462DED028BF0EE408A99
:1049C00090ED000AD0ED0B0A234930EE608A90ED9D
:1049D000030A08EE280A80ED030A90ED030A10EEA0
:1049E000100A884202DA9FED1D1B11E094ED030AC4
:1049F0001C4910EE100A884202DB9FED1B1B07E0EA
:104A000094ED030A10EE100AFBF7C4FD41EC110B04
:104A100051EC110BFBF702FE00EE100A84ED030AC5
:104A200094ED020A94ED031A78EE400A80EEA80A8B
:104A3000D4ED050A60EE810A94ED041A41EE080AED
:104A400094ED061A41EE000AC4ED0C0A84ED028AC8
:104A5000BDEC028B10BD00006F12833AFCA9F1D2AD
:104A60004D62503F9A9939403333333333330740E3
:104A700018489FED170A184980ED040A174A81ED7E
:104A8000040AB7EE000A82ED040A9FED150A80EDD4
:104A9000050A81ED050A9FED130A82ED050A9FEDD7
:104AA000120A80ED060A81ED060A9FED100A1048F1
:104AB00082ED060AB2EE040A80ED040A0D4880ED8C
:104AC000040A0D48B2EE000A80ED040A70470000A7
:104AD0003333B33E5C03002090030020C403002066
:104AE000CDCC4C3D3333333F0AD7A33CCDCCCC3D6A
:104AF000F80300202C0400206004002070B51C790D
:104B0000012C01D100F07F009C78DD6913460A4634
:104B100001462046A847002801D06FF0010070BD73
:104B200070B51C79012C01D100F07F00DC78DD69C3
:104B300013460A4601462046A847002801D06FF0D8
:104B4000010070BD2DE9FF4105469DF80400104E9F
:104B500040F0800014468DF804001F4600222946CC
:104B60003046FCF77BFE3223012201A90948FDF7FC
:104B700030FB32233A4621460648FDF77DFA0122F2
:104B800029463046FCF76AFE04B00020BDE8F081FB
:104B900000080240580100202DE9FF4107469DF81A
:104BA0000400154C00F07F0016468DF804001D46E9
:104BB000002239462046FCF751FE3223012201A98A
:104BC0000E48FDF706FB0D48FDF78EF90228FAD0D6
:104BD00032232A4631460948FDF7FBFA0748FDF71C
:104BE00083F90228FAD0012239462046FCF736FE26
:104BF00004B00020BDE8F081000802405801002008
:104C0000000610160006101600000000000000004C
:104C10000102030406070809000000000102030462
:104C2000E1E2E3E4E5000000F6FF793D2E9E8B3AD9
:104C3000504C000800000020000100009C3D0008CE
:104C4000504D00080001002098090000AC3D00080C
:104C50000100000010000000000000000024F4002B
:104C60000000000000000000000000000000102014
:104C70000100000000000000000000000000000033
:104C800000000000454B0008994B00084916000839
:104C90000000803F00000000000000000000000055
:104CA0000AD7A33C00000000000000000000000044
:104CB0006F12833A0C020B3F0AD7A33C000000009E
:104CC00000000000000000006F12833A0C020B3F4E
:104CD0000AD7A33C00000000000000000000000014
:104CE0006F12833A0C020B3F0AD7A33C000000006E
:104CF00000000000000000006F12833A0C020B3F1E
:104D00000AD7A33C000000000000000000000000E3
:104D10006F12833A0C020B3F0AD7A33C000000003D
:104D200000000000000000006F12833A0C020B3FED
:104D3000000087436F12033B0000000000000000EA
:104D40000000000000000000000000000000000063
:040000050800018965
:00000001FF
